{
  "contractName": "grsale",
  "abi": [
    {
      "constant": true,
      "inputs": [],
      "name": "maxcap",
      "outputs": [
        {
          "name": "",
          "type": "uint256"
        }
      ],
      "payable": false,
      "stateMutability": "view",
      "type": "function"
    },
    {
      "constant": true,
      "inputs": [],
      "name": "closeTime",
      "outputs": [
        {
          "name": "",
          "type": "uint256"
        }
      ],
      "payable": false,
      "stateMutability": "view",
      "type": "function"
    },
    {
      "constant": true,
      "inputs": [],
      "name": "deposit_addr",
      "outputs": [
        {
          "name": "",
          "type": "address"
        }
      ],
      "payable": false,
      "stateMutability": "view",
      "type": "function"
    },
    {
      "constant": true,
      "inputs": [
        {
          "name": "",
          "type": "address"
        }
      ],
      "name": "wallets",
      "outputs": [
        {
          "name": "",
          "type": "uint256"
        }
      ],
      "payable": false,
      "stateMutability": "view",
      "type": "function"
    },
    {
      "constant": true,
      "inputs": [],
      "name": "changeRate",
      "outputs": [
        {
          "name": "",
          "type": "uint256"
        }
      ],
      "payable": false,
      "stateMutability": "view",
      "type": "function"
    },
    {
      "constant": true,
      "inputs": [],
      "name": "openTime",
      "outputs": [
        {
          "name": "",
          "type": "uint256"
        }
      ],
      "payable": false,
      "stateMutability": "view",
      "type": "function"
    },
    {
      "constant": true,
      "inputs": [],
      "name": "state",
      "outputs": [
        {
          "name": "",
          "type": "uint8"
        }
      ],
      "payable": false,
      "stateMutability": "view",
      "type": "function"
    },
    {
      "constant": true,
      "inputs": [],
      "name": "raised",
      "outputs": [
        {
          "name": "",
          "type": "uint256"
        }
      ],
      "payable": false,
      "stateMutability": "view",
      "type": "function"
    },
    {
      "constant": true,
      "inputs": [
        {
          "name": "",
          "type": "uint256"
        }
      ],
      "name": "buyers",
      "outputs": [
        {
          "name": "",
          "type": "address"
        }
      ],
      "payable": false,
      "stateMutability": "view",
      "type": "function"
    },
    {
      "constant": true,
      "inputs": [],
      "name": "softcap",
      "outputs": [
        {
          "name": "",
          "type": "uint256"
        }
      ],
      "payable": false,
      "stateMutability": "view",
      "type": "function"
    },
    {
      "constant": true,
      "inputs": [],
      "name": "token",
      "outputs": [
        {
          "name": "",
          "type": "address"
        }
      ],
      "payable": false,
      "stateMutability": "view",
      "type": "function"
    },
    {
      "inputs": [
        {
          "name": "_deposit",
          "type": "address"
        },
        {
          "name": "_token",
          "type": "address"
        }
      ],
      "payable": false,
      "stateMutability": "nonpayable",
      "type": "constructor"
    },
    {
      "anonymous": false,
      "inputs": [
        {
          "indexed": false,
          "name": "buyer",
          "type": "address"
        },
        {
          "indexed": false,
          "name": "getter",
          "type": "address"
        },
        {
          "indexed": false,
          "name": "value",
          "type": "uint256"
        },
        {
          "indexed": false,
          "name": "amount",
          "type": "uint256"
        }
      ],
      "name": "TokenPurchase",
      "type": "event"
    },
    {
      "anonymous": false,
      "inputs": [
        {
          "indexed": false,
          "name": "closeTime",
          "type": "uint256"
        }
      ],
      "name": "CloseSale",
      "type": "event"
    },
    {
      "constant": false,
      "inputs": [
        {
          "name": "_getter",
          "type": "address"
        }
      ],
      "name": "buyToken",
      "outputs": [],
      "payable": true,
      "stateMutability": "payable",
      "type": "function"
    },
    {
      "constant": false,
      "inputs": [],
      "name": "closeSale",
      "outputs": [],
      "payable": true,
      "stateMutability": "payable",
      "type": "function"
    }
  ],
  "bytecode": "0x6080604052600060015534801561001557600080fd5b506040516040806112ca8339810180604052810190808051906020019092919080519060200190929190505050600073ffffffffffffffffffffffffffffffffffffffff168273ffffffffffffffffffffffffffffffffffffffff161415151561007e57600080fd5b600073ffffffffffffffffffffffffffffffffffffffff168173ffffffffffffffffffffffffffffffffffffffff16141515156100ba57600080fd5b816000806101000a81548173ffffffffffffffffffffffffffffffffffffffff021916908373ffffffffffffffffffffffffffffffffffffffff16021790555080600260006101000a81548173ffffffffffffffffffffffffffffffffffffffff021916908373ffffffffffffffffffffffffffffffffffffffff1602179055506000600260146101000a81548160ff0219169083600281111561015a57fe5b0217905550505061115a806101706000396000f3006080604052600436106100c5576000357c0100000000000000000000000000000000000000000000000000000000900463ffffffff16806355456f58146100ca578063627749e6146100f55780637e72fb52146101205780637fef05211461015657806389b08f11146101ad578063ae39515e14610204578063b42568881461022f578063c19d93fb1461025a578063ee55efee14610293578063f0ea4bfc1461029d578063f2aa8218146102c8578063f89be59314610335578063fc0c546a14610360575b600080fd5b3480156100d657600080fd5b506100df6103b7565b6040518082815260200191505060405180910390f35b34801561010157600080fd5b5061010a6103c4565b6040518082815260200191505060405180910390f35b610154600480360381019080803573ffffffffffffffffffffffffffffffffffffffff1690602001909291905050506103ce565b005b34801561016257600080fd5b5061016b610d18565b604051808273ffffffffffffffffffffffffffffffffffffffff1673ffffffffffffffffffffffffffffffffffffffff16815260200191505060405180910390f35b3480156101b957600080fd5b506101ee600480360381019080803573ffffffffffffffffffffffffffffffffffffffff169060200190929190505050610d3d565b6040518082815260200191505060405180910390f35b34801561021057600080fd5b50610219610d55565b6040518082815260200191505060405180910390f35b34801561023b57600080fd5b50610244610d5b565b6040518082815260200191505060405180910390f35b34801561026657600080fd5b5061026f610d65565b6040518082600281111561027f57fe5b60ff16815260200191505060405180910390f35b61029b610d78565b005b3480156102a957600080fd5b506102b2610fb1565b6040518082815260200191505060405180910390f35b3480156102d457600080fd5b506102f360048036038101908080359060200190929190505050610fb7565b604051808273ffffffffffffffffffffffffffffffffffffffff1673ffffffffffffffffffffffffffffffffffffffff16815260200191505060405180910390f35b34801561034157600080fd5b5061034a610ff5565b6040518082815260200191505060405180910390f35b34801561036c57600080fd5b50610375611002565b604051808273ffffffffffffffffffffffffffffffffffffffff1673ffffffffffffffffffffffffffffffffffffffff16815260200191505060405180910390f35b683635c9adc5dea0000081565b6501634edb878081565b60008060008060028111156103df57fe5b600260149054906101000a900460ff1660028111156103fa57fe5b14151561040657600080fd5b65016342329000421015151561041b57600080fd5b683635c9adc5dea0000060015410151561043457600080fd5b60015473__SafeMath______________________________63771602f79091346040518363ffffffff167c0100000000000000000000000000000000000000000000000000000000028152600401808381526020018281526020019250505060206040518083038186803b1580156104ab57600080fd5b505af41580156104bf573d6000803e3d6000fd5b505050506040513d60208110156104d557600080fd5b81019080805190602001909291905050509250683635c9adc5dea000008311156109c5578273__SafeMath______________________________63b67d77c59091683635c9adc5dea000006040518363ffffffff167c0100000000000000000000000000000000000000000000000000000000028152600401808381526020018281526020019250505060206040518083038186803b15801561057757600080fd5b505af415801561058b573d6000803e3d6000fd5b505050506040513d60208110156105a157600080fd5b810190808051906020019092919050505091503473__SafeMath______________________________63b67d77c59091846040518363ffffffff167c0100000000000000000000000000000000000000000000000000000000028152600401808381526020018281526020019250505060206040518083038186803b15801561062957600080fd5b505af415801561063d573d6000803e3d6000fd5b505050506040513d602081101561065357600080fd5b81019080805190602001909291905050509050600360008573ffffffffffffffffffffffffffffffffffffffff1673ffffffffffffffffffffffffffffffffffffffff1681526020019081526020016000205473__SafeMath______________________________63771602f790916106cb85611028565b6040518363ffffffff167c0100000000000000000000000000000000000000000000000000000000028152600401808381526020018281526020019250505060206040518083038186803b15801561072257600080fd5b505af4158015610736573d6000803e3d6000fd5b505050506040513d602081101561074c57600080fd5b8101908080519060200190929190505050600360008673ffffffffffffffffffffffffffffffffffffffff1673ffffffffffffffffffffffffffffffffffffffff168152602001908152602001600020819055506000600360008673ffffffffffffffffffffffffffffffffffffffff1673ffffffffffffffffffffffffffffffffffffffff16815260200190815260200160002054141561084f5760048490806001815401808255809150509060018203906000526020600020016000909192909190916101000a81548173ffffffffffffffffffffffffffffffffffffffff021916908373ffffffffffffffffffffffffffffffffffffffff160217905550505b60015473__SafeMath______________________________63771602f79091846040518363ffffffff167c0100000000000000000000000000000000000000000000000000000000028152600401808381526020018281526020019250505060206040518083038186803b1580156108c657600080fd5b505af41580156108da573d6000803e3d6000fd5b505050506040513d60208110156108f057600080fd5b81019080805190602001909291905050506001819055507f623b3804fa71d67900d064613da8f94b9617215ee90799290593e1745087ad1833853461093486611028565b604051808573ffffffffffffffffffffffffffffffffffffffff1673ffffffffffffffffffffffffffffffffffffffff1681526020018473ffffffffffffffffffffffffffffffffffffffff1673ffffffffffffffffffffffffffffffffffffffff16815260200183815260200182815260200194505050505060405180910390a16109c033826110e3565b610d12565b600360008573ffffffffffffffffffffffffffffffffffffffff1673ffffffffffffffffffffffffffffffffffffffff1681526020019081526020016000205473__SafeMath______________________________63771602f7909161271034026040518363ffffffff167c0100000000000000000000000000000000000000000000000000000000028152600401808381526020018281526020019250505060206040518083038186803b158015610a7d57600080fd5b505af4158015610a91573d6000803e3d6000fd5b505050506040513d6020811015610aa757600080fd5b8101908080519060200190929190505050600360008673ffffffffffffffffffffffffffffffffffffffff1673ffffffffffffffffffffffffffffffffffffffff168152602001908152602001600020819055506000600360008673ffffffffffffffffffffffffffffffffffffffff1673ffffffffffffffffffffffffffffffffffffffff168152602001908152602001600020541415610baa5760048490806001815401808255809150509060018203906000526020600020016000909192909190916101000a81548173ffffffffffffffffffffffffffffffffffffffff021916908373ffffffffffffffffffffffffffffffffffffffff160217905550505b60015473__SafeMath______________________________63771602f79091346040518363ffffffff167c0100000000000000000000000000000000000000000000000000000000028152600401808381526020018281526020019250505060206040518083038186803b158015610c2157600080fd5b505af4158015610c35573d6000803e3d6000fd5b505050506040513d6020811015610c4b57600080fd5b81019080805190602001909291905050506001819055507f623b3804fa71d67900d064613da8f94b9617215ee90799290593e1745087ad18338534610c8f34611028565b604051808573ffffffffffffffffffffffffffffffffffffffff1673ffffffffffffffffffffffffffffffffffffffff1681526020018473ffffffffffffffffffffffffffffffffffffffff1673ffffffffffffffffffffffffffffffffffffffff16815260200183815260200182815260200194505050505060405180910390a15b50505050565b6000809054906101000a900473ffffffffffffffffffffffffffffffffffffffff1681565b60036020528060005260406000206000915090505481565b61271081565b6501634232900081565b600260149054906101000a900460ff1681565b60006501634edb878042111515610d8e57600080fd5b7ff2ff7603d9b146f16da0b6f93f871b52e6e3124b9391cf6a480a2e41a988e91f426040518082815260200191505060405180910390a1681b1ae4d6e2ef5000006001541015610f895760028060146101000a81548160ff02191690836002811115610df657fe5b0217905550600090505b600480549050811015610f8457610f79600482815481101515610e1f57fe5b9060005260206000200160009054906101000a900473ffffffffffffffffffffffffffffffffffffffff1660036000600485815481101515610e5d57fe5b9060005260206000200160009054906101000a900473ffffffffffffffffffffffffffffffffffffffff1673ffffffffffffffffffffffffffffffffffffffff1673ffffffffffffffffffffffffffffffffffffffff1681526020019081526020016000205473__SafeMath______________________________63a391c15b90916127106040518363ffffffff167c0100000000000000000000000000000000000000000000000000000000028152600401808381526020018281526020019250505060206040518083038186803b158015610f3957600080fd5b505af4158015610f4d573d6000803e3d6000fd5b505050506040513d6020811015610f6357600080fd5b81019080805190602001909291905050506110e3565b806001019050610e00565b610fae565b6001600260146101000a81548160ff02191690836002811115610fa857fe5b02179055505b50565b60015481565b600481815481101515610fc657fe5b906000526020600020016000915054906101000a900473ffffffffffffffffffffffffffffffffffffffff1681565b681b1ae4d6e2ef50000081565b600260009054906101000a900473ffffffffffffffffffffffffffffffffffffffff1681565b60008173__SafeMath______________________________63c8a4ac9c90916127106040518363ffffffff167c0100000000000000000000000000000000000000000000000000000000028152600401808381526020018281526020019250505060206040518083038186803b1580156110a157600080fd5b505af41580156110b5573d6000803e3d6000fd5b505050506040513d60208110156110cb57600080fd5b81019080805190602001909291905050509050919050565b8173ffffffffffffffffffffffffffffffffffffffff166108fc829081150290604051600060405180830381858888f19350505050158015611129573d6000803e3d6000fd5b5050505600a165627a7a7230582044dbf594c88c4348163e61074abb3c1d197ead28af7d90335e8b9c32e0a9240a0029",
  "source": "pragma solidity ^0.4.18;\n\nimport \"./grtoken.sol\";\nimport \"./SafeMath.sol\";\n\ncontract grsale {\n    using SafeMath for uint256;\n    enum State { Ongoing, Closed, Refund }\n\n    uint256 public constant changeRate = 10000;\n    uint256 public constant openTime = 1525824000000;\n    uint256 public constant closeTime = 1526036400000;\n    uint public constant maxcap = 1000 ether;\n    uint public constant softcap = 500 ether;\n\n    address public deposit_addr;\n    uint public raised = 0;\n\n    GrToken public token;\n\n    State public state;\n\n    mapping (address => uint) public wallets;\n    // should buyers be private?\n    address[] public buyers;\n\n    // is it proper to use \"getter\"?\n    event TokenPurchase(address buyer, address getter, uint value, uint amount);\n    event CloseSale(uint closeTime);\n\n    // constructor\n    function grsale(address _deposit, GrToken _token) public {\n        require(_deposit != address(0));\n        require(_token != address(0));\n\n        deposit_addr = _deposit;\n        token = _token;\n        state = State.Ongoing;\n    }\n\n    function buyToken(address _getter) public payable {\n        require (state == State.Ongoing);\n        require (now >= openTime);\n        require (raised < maxcap);\n        uint amount = raised.add(msg.value);\n\n        // is this comparison possible?\n        if (amount > maxcap) {\n            uint inserted = amount.sub(maxcap);\n            uint reverted = msg.value.sub(inserted);\n\n            // insert money to wallets & add to buyer list\n            wallets[_getter] = wallets[_getter].add(_getToken(inserted));\n            if(wallets[_getter] == 0) {\n                buyers.push(_getter);\n            }\n            // add raised\n            raised = raised.add(inserted);\n            TokenPurchase(msg.sender, _getter, msg.value, _getToken(inserted));\n            // refund money to msg.sender\n            _refund(msg.sender, reverted);\n\n        } else {\n            // insert money to wallets & add to buyer list\n            wallets[_getter] = wallets[_getter].add(msg.value * changeRate);\n            if(wallets[_getter] == 0) {\n                buyers.push(_getter);\n            }\n\n            // add raised\n            raised = raised.add(msg.value);\n            TokenPurchase(msg.sender, _getter, msg.value, _getToken(msg.value));\n        }\n    }\n\n    function closeSale() public payable {\n        require(now > closeTime);\n        CloseSale(now);\n        if(raised < softcap) {\n            state = State.Refund;\n            // refund stuff\n            // should add check gasLimit stuff?\n            // does buyers and wallets' size are always same?\n            for (uint i = 0; i < buyers.length; ++i) {\n                _refund(buyers[i], wallets[buyers[i]].div(changeRate));\n            }\n        } else {\n            state = State.Closed;\n        }\n    }\n\n    // util functions\n    function _refund(address _return, uint amount) internal {\n        _return.transfer(amount);\n    }\n\n    function _getToken(uint amount) internal view returns (uint) {\n        return amount.mul(changeRate);\n    }\n}\n",
  "sourcePath": "/INT1/grhan/smart_contract/contracts/grsale.sol",
  "compiler": {
    "name": "solc",
    "version": "0.4.23+commit.124ca40d.Emscripten.clang"
  },
  "schemaVersion": "2.0.0",
  "updatedAt": "2018-05-08T05:29:49.702Z"
}