{
  "contractName": "GrSale",
  "abi": [
    {
      "constant": true,
      "inputs": [],
      "name": "maxcap",
      "outputs": [
        {
          "name": "",
          "type": "uint256"
        }
      ],
      "payable": false,
      "stateMutability": "view",
      "type": "function"
    },
    {
      "constant": true,
      "inputs": [],
      "name": "closeTime",
      "outputs": [
        {
          "name": "",
          "type": "uint256"
        }
      ],
      "payable": false,
      "stateMutability": "view",
      "type": "function"
    },
    {
      "constant": true,
      "inputs": [
        {
          "name": "",
          "type": "address"
        }
      ],
      "name": "wallets",
      "outputs": [
        {
          "name": "",
          "type": "uint256"
        }
      ],
      "payable": false,
      "stateMutability": "view",
      "type": "function"
    },
    {
      "constant": true,
      "inputs": [],
      "name": "owner",
      "outputs": [
        {
          "name": "",
          "type": "address"
        }
      ],
      "payable": false,
      "stateMutability": "view",
      "type": "function"
    },
    {
      "constant": true,
      "inputs": [],
      "name": "changeRate",
      "outputs": [
        {
          "name": "",
          "type": "uint256"
        }
      ],
      "payable": false,
      "stateMutability": "view",
      "type": "function"
    },
    {
      "constant": false,
      "inputs": [],
      "name": "Owned",
      "outputs": [],
      "payable": false,
      "stateMutability": "nonpayable",
      "type": "function"
    },
    {
      "constant": true,
      "inputs": [],
      "name": "openTime",
      "outputs": [
        {
          "name": "",
          "type": "uint256"
        }
      ],
      "payable": false,
      "stateMutability": "view",
      "type": "function"
    },
    {
      "constant": true,
      "inputs": [],
      "name": "state",
      "outputs": [
        {
          "name": "",
          "type": "uint8"
        }
      ],
      "payable": false,
      "stateMutability": "view",
      "type": "function"
    },
    {
      "constant": true,
      "inputs": [],
      "name": "raised",
      "outputs": [
        {
          "name": "",
          "type": "uint256"
        }
      ],
      "payable": false,
      "stateMutability": "view",
      "type": "function"
    },
    {
      "constant": true,
      "inputs": [
        {
          "name": "",
          "type": "uint256"
        }
      ],
      "name": "buyers",
      "outputs": [
        {
          "name": "",
          "type": "address"
        }
      ],
      "payable": false,
      "stateMutability": "view",
      "type": "function"
    },
    {
      "constant": false,
      "inputs": [
        {
          "name": "_newOwner",
          "type": "address"
        }
      ],
      "name": "transferOwnership",
      "outputs": [],
      "payable": false,
      "stateMutability": "nonpayable",
      "type": "function"
    },
    {
      "constant": true,
      "inputs": [],
      "name": "softcap",
      "outputs": [
        {
          "name": "",
          "type": "uint256"
        }
      ],
      "payable": false,
      "stateMutability": "view",
      "type": "function"
    },
    {
      "constant": true,
      "inputs": [],
      "name": "token",
      "outputs": [
        {
          "name": "",
          "type": "address"
        }
      ],
      "payable": false,
      "stateMutability": "view",
      "type": "function"
    },
    {
      "inputs": [
        {
          "name": "_token",
          "type": "address"
        }
      ],
      "payable": false,
      "stateMutability": "nonpayable",
      "type": "constructor"
    },
    {
      "payable": true,
      "stateMutability": "payable",
      "type": "fallback"
    },
    {
      "anonymous": false,
      "inputs": [
        {
          "indexed": false,
          "name": "buyer",
          "type": "address"
        },
        {
          "indexed": false,
          "name": "getter",
          "type": "address"
        },
        {
          "indexed": false,
          "name": "value",
          "type": "uint256"
        },
        {
          "indexed": false,
          "name": "amount",
          "type": "uint256"
        }
      ],
      "name": "TokenPurchase",
      "type": "event"
    },
    {
      "anonymous": false,
      "inputs": [
        {
          "indexed": false,
          "name": "closeTime",
          "type": "uint256"
        }
      ],
      "name": "CloseSale",
      "type": "event"
    },
    {
      "anonymous": false,
      "inputs": [
        {
          "indexed": true,
          "name": "_from",
          "type": "address"
        },
        {
          "indexed": true,
          "name": "_to",
          "type": "address"
        }
      ],
      "name": "OwnershipTransferred",
      "type": "event"
    },
    {
      "constant": false,
      "inputs": [
        {
          "name": "_getter",
          "type": "address"
        }
      ],
      "name": "buyToken",
      "outputs": [],
      "payable": true,
      "stateMutability": "payable",
      "type": "function"
    },
    {
      "constant": false,
      "inputs": [],
      "name": "startSale",
      "outputs": [],
      "payable": false,
      "stateMutability": "nonpayable",
      "type": "function"
    },
    {
      "constant": false,
      "inputs": [],
      "name": "closeSale",
      "outputs": [],
      "payable": true,
      "stateMutability": "payable",
      "type": "function"
    },
    {
      "constant": true,
      "inputs": [],
      "name": "getRaised",
      "outputs": [
        {
          "name": "",
          "type": "uint256"
        }
      ],
      "payable": false,
      "stateMutability": "view",
      "type": "function"
    }
  ],
  "bytecode": "0x6080604052600060015534801561001557600080fd5b506040516020806115b483398101806040528101908080519060200190929190505050600073ffffffffffffffffffffffffffffffffffffffff168173ffffffffffffffffffffffffffffffffffffffff161415151561007457600080fd5b80600260006101000a81548173ffffffffffffffffffffffffffffffffffffffff021916908373ffffffffffffffffffffffffffffffffffffffff1602179055506000600260146101000a81548160ff021916908360038111156100d457fe5b0217905550506114cb806100e96000396000f3006080604052600436106100f1576000357c0100000000000000000000000000000000000000000000000000000000900463ffffffff16806355456f58146100fc578063627749e6146101275780637e72fb521461015257806389b08f11146101885780638da5cb5b146101df578063ae39515e14610236578063b303dcbd14610261578063b425688814610278578063b66a0e5d146102a3578063b692c89d146102ba578063c19d93fb146102e5578063ee55efee1461031e578063f0ea4bfc14610328578063f2aa821814610353578063f2fde38b146103c0578063f89be59314610403578063fc0c546a1461042e575b6100fa33610485565b005b34801561010857600080fd5b50610111610dbb565b6040518082815260200191505060405180910390f35b34801561013357600080fd5b5061013c610dc8565b6040518082815260200191505060405180910390f35b610186600480360381019080803573ffffffffffffffffffffffffffffffffffffffff169060200190929190505050610485565b005b34801561019457600080fd5b506101c9600480360381019080803573ffffffffffffffffffffffffffffffffffffffff169060200190929190505050610dd2565b6040518082815260200191505060405180910390f35b3480156101eb57600080fd5b506101f4610dea565b604051808273ffffffffffffffffffffffffffffffffffffffff1673ffffffffffffffffffffffffffffffffffffffff16815260200191505060405180910390f35b34801561024257600080fd5b5061024b610e0f565b6040518082815260200191505060405180910390f35b34801561026d57600080fd5b50610276610e15565b005b34801561028457600080fd5b5061028d610e57565b6040518082815260200191505060405180910390f35b3480156102af57600080fd5b506102b8610e61565b005b3480156102c657600080fd5b506102cf610ef6565b6040518082815260200191505060405180910390f35b3480156102f157600080fd5b506102fa610f00565b6040518082600381111561030a57fe5b60ff16815260200191505060405180910390f35b610326610f13565b005b34801561033457600080fd5b5061033d6111a7565b6040518082815260200191505060405180910390f35b34801561035f57600080fd5b5061037e600480360381019080803590602001909291905050506111ad565b604051808273ffffffffffffffffffffffffffffffffffffffff1673ffffffffffffffffffffffffffffffffffffffff16815260200191505060405180910390f35b3480156103cc57600080fd5b50610401600480360381019080803573ffffffffffffffffffffffffffffffffffffffff1690602001909291905050506111eb565b005b34801561040f57600080fd5b50610418611340565b6040518082815260200191505060405180910390f35b34801561043a57600080fd5b5061044361134d565b604051808273ffffffffffffffffffffffffffffffffffffffff1673ffffffffffffffffffffffffffffffffffffffff16815260200191505060405180910390f35b60008060006001600381111561049757fe5b600260149054906101000a900460ff1660038111156104b257fe5b1415156104be57600080fd5b683635c9adc5dea000006001541015156104d757600080fd5b60015473__SafeMath______________________________63771602f79091346040518363ffffffff167c0100000000000000000000000000000000000000000000000000000000028152600401808381526020018281526020019250505060206040518083038186803b15801561054e57600080fd5b505af4158015610562573d6000803e3d6000fd5b505050506040513d602081101561057857600080fd5b81019080805190602001909291905050509250683635c9adc5dea00000831115610a68578273__SafeMath______________________________63b67d77c59091683635c9adc5dea000006040518363ffffffff167c0100000000000000000000000000000000000000000000000000000000028152600401808381526020018281526020019250505060206040518083038186803b15801561061a57600080fd5b505af415801561062e573d6000803e3d6000fd5b505050506040513d602081101561064457600080fd5b810190808051906020019092919050505091503473__SafeMath______________________________63b67d77c59091846040518363ffffffff167c0100000000000000000000000000000000000000000000000000000000028152600401808381526020018281526020019250505060206040518083038186803b1580156106cc57600080fd5b505af41580156106e0573d6000803e3d6000fd5b505050506040513d60208110156106f657600080fd5b81019080805190602001909291905050509050600360008573ffffffffffffffffffffffffffffffffffffffff1673ffffffffffffffffffffffffffffffffffffffff1681526020019081526020016000205473__SafeMath______________________________63771602f7909161076e85611373565b6040518363ffffffff167c0100000000000000000000000000000000000000000000000000000000028152600401808381526020018281526020019250505060206040518083038186803b1580156107c557600080fd5b505af41580156107d9573d6000803e3d6000fd5b505050506040513d60208110156107ef57600080fd5b8101908080519060200190929190505050600360008673ffffffffffffffffffffffffffffffffffffffff1673ffffffffffffffffffffffffffffffffffffffff168152602001908152602001600020819055506000600360008673ffffffffffffffffffffffffffffffffffffffff1673ffffffffffffffffffffffffffffffffffffffff1681526020019081526020016000205414156108f25760048490806001815401808255809150509060018203906000526020600020016000909192909190916101000a81548173ffffffffffffffffffffffffffffffffffffffff021916908373ffffffffffffffffffffffffffffffffffffffff160217905550505b60015473__SafeMath______________________________63771602f79091846040518363ffffffff167c0100000000000000000000000000000000000000000000000000000000028152600401808381526020018281526020019250505060206040518083038186803b15801561096957600080fd5b505af415801561097d573d6000803e3d6000fd5b505050506040513d602081101561099357600080fd5b81019080805190602001909291905050506001819055507f623b3804fa71d67900d064613da8f94b9617215ee90799290593e1745087ad183385346109d786611373565b604051808573ffffffffffffffffffffffffffffffffffffffff1673ffffffffffffffffffffffffffffffffffffffff1681526020018473ffffffffffffffffffffffffffffffffffffffff1673ffffffffffffffffffffffffffffffffffffffff16815260200183815260200182815260200194505050505060405180910390a1610a63338261142e565b610db5565b600360008573ffffffffffffffffffffffffffffffffffffffff1673ffffffffffffffffffffffffffffffffffffffff1681526020019081526020016000205473__SafeMath______________________________63771602f7909161271034026040518363ffffffff167c0100000000000000000000000000000000000000000000000000000000028152600401808381526020018281526020019250505060206040518083038186803b158015610b2057600080fd5b505af4158015610b34573d6000803e3d6000fd5b505050506040513d6020811015610b4a57600080fd5b8101908080519060200190929190505050600360008673ffffffffffffffffffffffffffffffffffffffff1673ffffffffffffffffffffffffffffffffffffffff168152602001908152602001600020819055506000600360008673ffffffffffffffffffffffffffffffffffffffff1673ffffffffffffffffffffffffffffffffffffffff168152602001908152602001600020541415610c4d5760048490806001815401808255809150509060018203906000526020600020016000909192909190916101000a81548173ffffffffffffffffffffffffffffffffffffffff021916908373ffffffffffffffffffffffffffffffffffffffff160217905550505b60015473__SafeMath______________________________63771602f79091346040518363ffffffff167c0100000000000000000000000000000000000000000000000000000000028152600401808381526020018281526020019250505060206040518083038186803b158015610cc457600080fd5b505af4158015610cd8573d6000803e3d6000fd5b505050506040513d6020811015610cee57600080fd5b81019080805190602001909291905050506001819055507f623b3804fa71d67900d064613da8f94b9617215ee90799290593e1745087ad18338534610d3234611373565b604051808573ffffffffffffffffffffffffffffffffffffffff1673ffffffffffffffffffffffffffffffffffffffff1681526020018473ffffffffffffffffffffffffffffffffffffffff1673ffffffffffffffffffffffffffffffffffffffff16815260200183815260200182815260200194505050505060405180910390a15b50505050565b683635c9adc5dea0000081565b6501634edb878081565b60036020528060005260406000206000915090505481565b6000809054906101000a900473ffffffffffffffffffffffffffffffffffffffff1681565b61271081565b336000806101000a81548173ffffffffffffffffffffffffffffffffffffffff021916908373ffffffffffffffffffffffffffffffffffffffff160217905550565b6501634232900081565b6000809054906101000a900473ffffffffffffffffffffffffffffffffffffffff1673ffffffffffffffffffffffffffffffffffffffff163373ffffffffffffffffffffffffffffffffffffffff16141515610ebc57600080fd5b6501634232900042111515610ed057600080fd5b6001600260146101000a81548160ff02191690836003811115610eef57fe5b0217905550565b6000600154905090565b600260149054906101000a900460ff1681565b60008060009054906101000a900473ffffffffffffffffffffffffffffffffffffffff1673ffffffffffffffffffffffffffffffffffffffff163373ffffffffffffffffffffffffffffffffffffffff16141515610f7057600080fd5b6501634edb878042111515610f8457600080fd5b7ff2ff7603d9b146f16da0b6f93f871b52e6e3124b9391cf6a480a2e41a988e91f426040518082815260200191505060405180910390a1681b1ae4d6e2ef5000006001541015611180576003600260146101000a81548160ff02191690836003811115610fed57fe5b0217905550600090505b60048054905081101561117b5761117060048281548110151561101657fe5b9060005260206000200160009054906101000a900473ffffffffffffffffffffffffffffffffffffffff166003600060048581548110151561105457fe5b9060005260206000200160009054906101000a900473ffffffffffffffffffffffffffffffffffffffff1673ffffffffffffffffffffffffffffffffffffffff1673ffffffffffffffffffffffffffffffffffffffff1681526020019081526020016000205473__SafeMath______________________________63a391c15b90916127106040518363ffffffff167c0100000000000000000000000000000000000000000000000000000000028152600401808381526020018281526020019250505060206040518083038186803b15801561113057600080fd5b505af4158015611144573d6000803e3d6000fd5b505050506040513d602081101561115a57600080fd5b810190808051906020019092919050505061142e565b806001019050610ff7565b6111a4565b60028060146101000a81548160ff0219169083600381111561119e57fe5b02179055505b50565b60015481565b6004818154811015156111bc57fe5b906000526020600020016000915054906101000a900473ffffffffffffffffffffffffffffffffffffffff1681565b6000809054906101000a900473ffffffffffffffffffffffffffffffffffffffff1673ffffffffffffffffffffffffffffffffffffffff163373ffffffffffffffffffffffffffffffffffffffff1614151561124657600080fd5b600073ffffffffffffffffffffffffffffffffffffffff168173ffffffffffffffffffffffffffffffffffffffff161415151561128257600080fd5b8073ffffffffffffffffffffffffffffffffffffffff166000809054906101000a900473ffffffffffffffffffffffffffffffffffffffff1673ffffffffffffffffffffffffffffffffffffffff167f8be0079c531659141344cd1fd0a4f28419497f9722a3daafe3b4186f6b6457e060405160405180910390a3806000806101000a81548173ffffffffffffffffffffffffffffffffffffffff021916908373ffffffffffffffffffffffffffffffffffffffff16021790555050565b681b1ae4d6e2ef50000081565b600260009054906101000a900473ffffffffffffffffffffffffffffffffffffffff1681565b60008173__SafeMath______________________________63c8a4ac9c90916127106040518363ffffffff167c0100000000000000000000000000000000000000000000000000000000028152600401808381526020018281526020019250505060206040518083038186803b1580156113ec57600080fd5b505af4158015611400573d6000803e3d6000fd5b505050506040513d602081101561141657600080fd5b81019080805190602001909291905050509050919050565b803373ffffffffffffffffffffffffffffffffffffffff16311015151561145457600080fd5b8173ffffffffffffffffffffffffffffffffffffffff166108fc829081150290604051600060405180830381858888f1935050505015801561149a573d6000803e3d6000fd5b5050505600a165627a7a72305820197e4d8b427ef0d53e2a5d2ad6b694a80b512baee2f9df071a9bface46d4268f0029",
  "source": "pragma solidity ^0.4.18;\n\nimport \"./ownable.sol\";\nimport \"./SafeMath.sol\";\nimport \"./GrToken.sol\";\n\ncontract GrSale is Ownable {\n    using SafeMath for uint256;\n    enum State { Standby, Ongoing, Closed, Refund }\n\n    uint256 public constant changeRate = 10000;\n    uint256 public constant openTime = 1525824000000;\n    uint256 public constant closeTime = 1526036400000;\n    uint public constant maxcap = 1000 ether;\n    uint public constant softcap = 500 ether;\n\n    uint public raised = 0;\n\n    GrToken public token;\n\n    State public state;\n\n    mapping (address => uint) public wallets;\n    // should buyers be private?\n    address[] public buyers;\n\n    // is it proper to use \"getter\"? just merge buyer and getter?\n    event TokenPurchase(address buyer, address getter, uint value, uint amount);\n    event CloseSale(uint closeTime);\n\n    // constructor\n    function GrSale(GrToken _token) public {\n        require(_token != address(0));\n\n        token = _token;\n        state = State.Standby;\n    }\n\n\n    // buyToken stuff\n\n    function () payable public {\n        buyToken(msg.sender);\n    }\n\n    function buyToken(address _getter) public payable {\n        require (state == State.Ongoing);\n        require (raised < maxcap);\n        uint amount = raised.add(msg.value);\n\n        // is this comparison possible?\n        if (amount > maxcap) {\n            uint inserted = amount.sub(maxcap);\n            uint reverted = msg.value.sub(inserted);\n\n            // insert money to wallets & add to buyer list\n            wallets[_getter] = wallets[_getter].add(_getToken(inserted));\n            if(wallets[_getter] == 0) {\n                buyers.push(_getter);\n            }\n            // add raised\n            raised = raised.add(inserted);\n            TokenPurchase(msg.sender, _getter, msg.value, _getToken(inserted));\n            // refund money to msg.sender\n            _refund(msg.sender, reverted);\n\n        } else {\n            // insert money to wallets & add to buyer list\n            wallets[_getter] = wallets[_getter].add(msg.value * changeRate);\n            if(wallets[_getter] == 0) {\n                buyers.push(_getter);\n            }\n\n            // add raised\n            raised = raised.add(msg.value);\n            TokenPurchase(msg.sender, _getter, msg.value, _getToken(msg.value));\n        }\n    }\n\n    function startSale() public onlyOwner {\n        require(now > openTime);\n        state = State.Ongoing;\n    }\n\n    function closeSale() public payable onlyOwner{\n        require(now > closeTime);\n        CloseSale(now);\n        if(raised < softcap) {\n            state = State.Refund;\n            // refund stuff\n            // should add check gasLimit stuff?\n            // does buyers and wallets' size are always same?\n            for (uint i = 0; i < buyers.length; ++i) {\n                _refund(buyers[i], wallets[buyers[i]].div(changeRate));\n            }\n        } else {\n            state = State.Closed;\n        }\n    }\n\n    // util functions\n    function _refund(address _return, uint amount) internal {\n        require(msg.sender.balance >= amount);\n        _return.transfer(amount);\n    }\n\n    function _getToken(uint amount) internal view returns (uint) {\n        return amount.mul(changeRate);\n    }\n\n    // getter functions\n    function getRaised() public view returns (uint) {\n        return raised;\n    }\n\n}\n",
  "sourcePath": "/INT1/grhan/smart_contract/contracts/GrSale.sol",
  "compiler": {
    "name": "solc",
    "version": "0.4.23+commit.124ca40d.Emscripten.clang"
  },
  "schemaVersion": "2.0.0",
  "updatedAt": "2018-05-08T06:39:53.763Z"
}